{
  "_format": "hh-sol-artifact-1",
  "contractName": "Whitelist",
  "sourceName": "contracts/Whitelist.sol",
  "abi": [
    {
      "inputs": [],
      "stateMutability": "nonpayable",
      "type": "constructor"
    },
    {
      "anonymous": false,
      "inputs": [
        {
          "indexed": true,
          "internalType": "address",
          "name": "providerAddress",
          "type": "address"
        },
        {
          "indexed": false,
          "internalType": "string",
          "name": "underlying",
          "type": "string"
        }
      ],
      "name": "ActivatedDatafeedByProvider",
      "type": "event"
    },
    {
      "anonymous": false,
      "inputs": [
        {
          "indexed": true,
          "internalType": "address",
          "name": "providerAddress",
          "type": "address"
        },
        {
          "indexed": false,
          "internalType": "string",
          "name": "underlying",
          "type": "string"
        }
      ],
      "name": "AddedDatafeed",
      "type": "event"
    },
    {
      "anonymous": false,
      "inputs": [
        {
          "indexed": true,
          "internalType": "address",
          "name": "providerAddress",
          "type": "address"
        }
      ],
      "name": "AddedToWhitelist",
      "type": "event"
    },
    {
      "anonymous": false,
      "inputs": [
        {
          "indexed": true,
          "internalType": "address",
          "name": "providerAddress",
          "type": "address"
        },
        {
          "indexed": false,
          "internalType": "string",
          "name": "underlying",
          "type": "string"
        }
      ],
      "name": "DeactivatedDatafeedByProvider",
      "type": "event"
    },
    {
      "anonymous": false,
      "inputs": [
        {
          "indexed": true,
          "internalType": "address",
          "name": "providerAddress",
          "type": "address"
        },
        {
          "indexed": false,
          "internalType": "string",
          "name": "underlying",
          "type": "string"
        }
      ],
      "name": "RemovedDatafeed",
      "type": "event"
    },
    {
      "anonymous": false,
      "inputs": [
        {
          "indexed": true,
          "internalType": "address",
          "name": "providerAddress",
          "type": "address"
        }
      ],
      "name": "RemovedFromWhitelist",
      "type": "event"
    },
    {
      "anonymous": false,
      "inputs": [
        {
          "indexed": true,
          "internalType": "address",
          "name": "providerAddress",
          "type": "address"
        },
        {
          "indexed": false,
          "internalType": "string",
          "name": "underlying",
          "type": "string"
        }
      ],
      "name": "UpdatedDatafeedActiveFlagByOwner",
      "type": "event"
    },
    {
      "inputs": [
        {
          "internalType": "address",
          "name": "_address",
          "type": "address"
        },
        {
          "internalType": "uint256[]",
          "name": "_index",
          "type": "uint256[]"
        },
        {
          "internalType": "string[]",
          "name": "_matchUnderlying",
          "type": "string[]"
        }
      ],
      "name": "activateDatafeeds",
      "outputs": [],
      "stateMutability": "nonpayable",
      "type": "function"
    },
    {
      "inputs": [
        {
          "internalType": "address",
          "name": "_address",
          "type": "address"
        },
        {
          "internalType": "string[]",
          "name": "_underlyings",
          "type": "string[]"
        }
      ],
      "name": "addDatafeeds",
      "outputs": [],
      "stateMutability": "nonpayable",
      "type": "function"
    },
    {
      "inputs": [
        {
          "internalType": "address[]",
          "name": "_address",
          "type": "address[]"
        }
      ],
      "name": "addToWhitelist",
      "outputs": [],
      "stateMutability": "nonpayable",
      "type": "function"
    },
    {
      "inputs": [
        {
          "internalType": "address",
          "name": "",
          "type": "address"
        },
        {
          "internalType": "uint256",
          "name": "",
          "type": "uint256"
        }
      ],
      "name": "datafeeds",
      "outputs": [
        {
          "internalType": "string",
          "name": "underlying",
          "type": "string"
        },
        {
          "internalType": "bool",
          "name": "isActive",
          "type": "bool"
        }
      ],
      "stateMutability": "view",
      "type": "function"
    },
    {
      "inputs": [
        {
          "internalType": "address",
          "name": "_address",
          "type": "address"
        },
        {
          "internalType": "uint256[]",
          "name": "_index",
          "type": "uint256[]"
        },
        {
          "internalType": "string[]",
          "name": "_matchUnderlying",
          "type": "string[]"
        }
      ],
      "name": "deactivateDatafeeds",
      "outputs": [],
      "stateMutability": "nonpayable",
      "type": "function"
    },
    {
      "inputs": [],
      "name": "getAllProviders",
      "outputs": [
        {
          "internalType": "address[]",
          "name": "",
          "type": "address[]"
        }
      ],
      "stateMutability": "view",
      "type": "function"
    },
    {
      "inputs": [
        {
          "internalType": "address",
          "name": "_address",
          "type": "address"
        }
      ],
      "name": "getDatafeeds",
      "outputs": [
        {
          "components": [
            {
              "internalType": "string",
              "name": "underlying",
              "type": "string"
            },
            {
              "internalType": "bool",
              "name": "isActive",
              "type": "bool"
            }
          ],
          "internalType": "struct IWhitelist.Datafeed[]",
          "name": "",
          "type": "tuple[]"
        }
      ],
      "stateMutability": "view",
      "type": "function"
    },
    {
      "inputs": [],
      "name": "getOwner",
      "outputs": [
        {
          "internalType": "address",
          "name": "",
          "type": "address"
        }
      ],
      "stateMutability": "view",
      "type": "function"
    },
    {
      "inputs": [
        {
          "internalType": "address",
          "name": "_address",
          "type": "address"
        }
      ],
      "name": "isWhitelisted",
      "outputs": [
        {
          "internalType": "bool",
          "name": "",
          "type": "bool"
        }
      ],
      "stateMutability": "view",
      "type": "function"
    },
    {
      "inputs": [],
      "name": "owner",
      "outputs": [
        {
          "internalType": "address",
          "name": "",
          "type": "address"
        }
      ],
      "stateMutability": "view",
      "type": "function"
    },
    {
      "inputs": [
        {
          "internalType": "uint256",
          "name": "",
          "type": "uint256"
        }
      ],
      "name": "providers",
      "outputs": [
        {
          "internalType": "address",
          "name": "",
          "type": "address"
        }
      ],
      "stateMutability": "view",
      "type": "function"
    },
    {
      "inputs": [
        {
          "internalType": "address[]",
          "name": "_address",
          "type": "address[]"
        }
      ],
      "name": "removeFromWhitelist",
      "outputs": [],
      "stateMutability": "nonpayable",
      "type": "function"
    }
  ],
  "bytecode": "0x608060405234801561001057600080fd5b5033600360006101000a81548173ffffffffffffffffffffffffffffffffffffffff021916908373ffffffffffffffffffffffffffffffffffffffff16021790555061285c806100616000396000f3fe608060405234801561001057600080fd5b50600436106100b45760003560e01c8063893d20e811610071578063893d20e8146101a05780638da5cb5b146101be578063d8f50513146101dc578063dafd84991461020c578063f5d4a33a14610228578063fe28ace114610244576100b4565b80633af32abf146100b95780633bb4497c146100e957806350f3fc8114610107578063548db1741461013757806378c8dd17146101535780637f64978314610184575b600080fd5b6100d360048036038101906100ce9190611bf1565b610260565b6040516100e0919061218a565b60405180910390f35b6100f16102b5565b6040516100fe9190612146565b60405180910390f35b610121600480360381019061011c9190611d6a565b610343565b60405161012e919061212b565b60405180910390f35b610151600480360381019061014c9190611d29565b610382565b005b61016d60048036038101906101689190611ced565b6105ff565b60405161017b9291906121c7565b60405180910390f35b61019e60048036038101906101999190611d29565b6106d5565b005b6101a86109f5565b6040516101b5919061212b565b60405180910390f35b6101c6610a1f565b6040516101d3919061212b565b60405180910390f35b6101f660048036038101906101f19190611bf1565b610a45565b6040516102039190612168565b60405180910390f35b61022660048036038101906102219190611c6e565b610b90565b005b610242600480360381019061023d9190611c1a565b611133565b005b61025e60048036038101906102599190611c6e565b611374565b005b60008060008373ffffffffffffffffffffffffffffffffffffffff1673ffffffffffffffffffffffffffffffffffffffff16815260200190815260200160002060009054906101000a900460ff169050919050565b6060600280548060200260200160405190810160405280929190818152602001828054801561033957602002820191906000526020600020905b8160009054906101000a900473ffffffffffffffffffffffffffffffffffffffff1673ffffffffffffffffffffffffffffffffffffffff16815260200190600101908083116102ef575b5050505050905090565b6002818154811061035357600080fd5b906000526020600020016000915054906101000a900473ffffffffffffffffffffffffffffffffffffffff1681565b600360009054906101000a900473ffffffffffffffffffffffffffffffffffffffff1673ffffffffffffffffffffffffffffffffffffffff163373ffffffffffffffffffffffffffffffffffffffff1614610412576040517f08c379a000000000000000000000000000000000000000000000000000000000815260040161040990612237565b60405180910390fd5b60005b81518110156105fb57600073ffffffffffffffffffffffffffffffffffffffff1682828151811061046f577f4e487b7100000000000000000000000000000000000000000000000000000000600052603260045260246000fd5b602002602001015173ffffffffffffffffffffffffffffffffffffffff1614156104ce576040517f08c379a00000000000000000000000000000000000000000000000000000000081526004016104c590612297565b60405180910390fd5b600080600084848151811061050c577f4e487b7100000000000000000000000000000000000000000000000000000000600052603260045260246000fd5b602002602001015173ffffffffffffffffffffffffffffffffffffffff1673ffffffffffffffffffffffffffffffffffffffff16815260200190815260200160002060006101000a81548160ff02191690831515021790555081818151811061059e577f4e487b7100000000000000000000000000000000000000000000000000000000600052603260045260246000fd5b602002602001015173ffffffffffffffffffffffffffffffffffffffff167fcdd2e9b91a56913d370075169cefa1602ba36be5301664f752192bb1709df75760405160405180910390a280806105f39061257d565b915050610415565b5050565b6001602052816000526040600020818154811061061b57600080fd5b90600052602060002090600202016000915091505080600001805461063f9061251a565b80601f016020809104026020016040519081016040528092919081815260200182805461066b9061251a565b80156106b85780601f1061068d576101008083540402835291602001916106b8565b820191906000526020600020905b81548152906001019060200180831161069b57829003601f168201915b5050505050908060010160009054906101000a900460ff16905082565b600360009054906101000a900473ffffffffffffffffffffffffffffffffffffffff1673ffffffffffffffffffffffffffffffffffffffff163373ffffffffffffffffffffffffffffffffffffffff1614610765576040517f08c379a000000000000000000000000000000000000000000000000000000000815260040161075c90612237565b60405180910390fd5b60005b81518110156109f157600073ffffffffffffffffffffffffffffffffffffffff168282815181106107c2577f4e487b7100000000000000000000000000000000000000000000000000000000600052603260045260246000fd5b602002602001015173ffffffffffffffffffffffffffffffffffffffff161415610821576040517f08c379a000000000000000000000000000000000000000000000000000000000815260040161081890612297565b60405180910390fd5b600160008084848151811061085f577f4e487b7100000000000000000000000000000000000000000000000000000000600052603260045260246000fd5b602002602001015173ffffffffffffffffffffffffffffffffffffffff1673ffffffffffffffffffffffffffffffffffffffff16815260200190815260200160002060006101000a81548160ff02191690831515021790555060028282815181106108f3577f4e487b7100000000000000000000000000000000000000000000000000000000600052603260045260246000fd5b60200260200101519080600181540180825580915050600190039060005260206000200160009091909190916101000a81548173ffffffffffffffffffffffffffffffffffffffff021916908373ffffffffffffffffffffffffffffffffffffffff160217905550818181518110610994577f4e487b7100000000000000000000000000000000000000000000000000000000600052603260045260246000fd5b602002602001015173ffffffffffffffffffffffffffffffffffffffff167fa850ae9193f515cbae8d35e8925bd2be26627fc91bce650b8652ed254e9cab0360405160405180910390a280806109e99061257d565b915050610768565b5050565b6000600360009054906101000a900473ffffffffffffffffffffffffffffffffffffffff16905090565b600360009054906101000a900473ffffffffffffffffffffffffffffffffffffffff1681565b6060600160008373ffffffffffffffffffffffffffffffffffffffff1673ffffffffffffffffffffffffffffffffffffffff168152602001908152602001600020805480602002602001604051908101604052809291908181526020016000905b82821015610b855783829060005260206000209060020201604051806040016040529081600082018054610ad99061251a565b80601f0160208091040260200160405190810160405280929190818152602001828054610b059061251a565b8015610b525780601f10610b2757610100808354040283529160200191610b52565b820191906000526020600020905b815481529060010190602001808311610b3557829003601f168201915b505050505081526020016001820160009054906101000a900460ff16151515158152505081526020019060010190610aa6565b505050509050919050565b8051825114610bd4576040517f08c379a0000000000000000000000000000000000000000000000000000000008152600401610bcb906122d7565b60405180910390fd5b8273ffffffffffffffffffffffffffffffffffffffff163373ffffffffffffffffffffffffffffffffffffffff161480610c5b5750600360009054906101000a900473ffffffffffffffffffffffffffffffffffffffff1673ffffffffffffffffffffffffffffffffffffffff163373ffffffffffffffffffffffffffffffffffffffff16145b610c9a576040517f08c379a0000000000000000000000000000000000000000000000000000000008152600401610c9190612277565b60405180910390fd5b60005b825181101561112d57818181518110610cdf577f4e487b7100000000000000000000000000000000000000000000000000000000600052603260045260246000fd5b602002602001015180519060200120600160008673ffffffffffffffffffffffffffffffffffffffff1673ffffffffffffffffffffffffffffffffffffffff168152602001908152602001600020848381518110610d66577f4e487b7100000000000000000000000000000000000000000000000000000000600052603260045260246000fd5b602002602001015181548110610da5577f4e487b7100000000000000000000000000000000000000000000000000000000600052603260045260246000fd5b9060005260206000209060020201600001604051610dc39190612114565b604051809103902014610e0b576040517f08c379a0000000000000000000000000000000000000000000000000000000008152600401610e0290612257565b60405180910390fd5b60011515600160008673ffffffffffffffffffffffffffffffffffffffff1673ffffffffffffffffffffffffffffffffffffffff168152602001908152602001600020848381518110610e87577f4e487b7100000000000000000000000000000000000000000000000000000000600052603260045260246000fd5b602002602001015181548110610ec6577f4e487b7100000000000000000000000000000000000000000000000000000000600052603260045260246000fd5b906000526020600020906002020160010160009054906101000a900460ff16151514610f27576040517f08c379a0000000000000000000000000000000000000000000000000000000008152600401610f1e906122b7565b60405180910390fd5b6000838281518110610f62577f4e487b7100000000000000000000000000000000000000000000000000000000600052603260045260246000fd5b60200260200101511015610fab576040517f08c379a0000000000000000000000000000000000000000000000000000000008152600401610fa290612217565b60405180910390fd5b6000600160008673ffffffffffffffffffffffffffffffffffffffff1673ffffffffffffffffffffffffffffffffffffffff168152602001908152602001600020848381518110611025577f4e487b7100000000000000000000000000000000000000000000000000000000600052603260045260246000fd5b602002602001015181548110611064577f4e487b7100000000000000000000000000000000000000000000000000000000600052603260045260246000fd5b906000526020600020906002020160010160006101000a81548160ff0219169083151502179055508373ffffffffffffffffffffffffffffffffffffffff167fca5ce95bac6a44eb7af6db2ccc247d84d2a9b5d9502a4669a871e612e9ffe3d38383815181106110fd577f4e487b7100000000000000000000000000000000000000000000000000000000600052603260045260246000fd5b602002602001015160405161111291906121a5565b60405180910390a280806111259061257d565b915050610c9d565b50505050565b600360009054906101000a900473ffffffffffffffffffffffffffffffffffffffff1673ffffffffffffffffffffffffffffffffffffffff163373ffffffffffffffffffffffffffffffffffffffff16146111c3576040517f08c379a00000000000000000000000000000000000000000000000000000000081526004016111ba90612237565b60405180910390fd5b60005b815181101561136f57600160008473ffffffffffffffffffffffffffffffffffffffff1673ffffffffffffffffffffffffffffffffffffffff1681526020019081526020016000206040518060400160405280848481518110611252577f4e487b7100000000000000000000000000000000000000000000000000000000600052603260045260246000fd5b6020026020010151815260200160011515815250908060018154018082558091505060019003906000526020600020906002020160009091909190915060008201518160000190805190602001906112ab9291906118e0565b5060208201518160010160006101000a81548160ff02191690831515021790555050508273ffffffffffffffffffffffffffffffffffffffff167ff63a41ab52274fd6a7553b545ca552cad9b67067a983d148e487e620b982083583838151811061133f577f4e487b7100000000000000000000000000000000000000000000000000000000600052603260045260246000fd5b602002602001015160405161135491906121a5565b60405180910390a280806113679061257d565b9150506111c6565b505050565b600360009054906101000a900473ffffffffffffffffffffffffffffffffffffffff1673ffffffffffffffffffffffffffffffffffffffff163373ffffffffffffffffffffffffffffffffffffffff1614611404576040517f08c379a00000000000000000000000000000000000000000000000000000000081526004016113fb90612237565b60405180910390fd5b8051825114611448576040517f08c379a000000000000000000000000000000000000000000000000000000000815260040161143f906122d7565b60405180910390fd5b60005b82518110156118da5781818151811061148d577f4e487b7100000000000000000000000000000000000000000000000000000000600052603260045260246000fd5b602002602001015180519060200120600160008673ffffffffffffffffffffffffffffffffffffffff1673ffffffffffffffffffffffffffffffffffffffff168152602001908152602001600020848381518110611514577f4e487b7100000000000000000000000000000000000000000000000000000000600052603260045260246000fd5b602002602001015181548110611553577f4e487b7100000000000000000000000000000000000000000000000000000000600052603260045260246000fd5b90600052602060002090600202016000016040516115719190612114565b6040518091039020146115b9576040517f08c379a00000000000000000000000000000000000000000000000000000000081526004016115b090612257565b60405180910390fd5b60001515600160008673ffffffffffffffffffffffffffffffffffffffff1673ffffffffffffffffffffffffffffffffffffffff168152602001908152602001600020848381518110611635577f4e487b7100000000000000000000000000000000000000000000000000000000600052603260045260246000fd5b602002602001015181548110611674577f4e487b7100000000000000000000000000000000000000000000000000000000600052603260045260246000fd5b906000526020600020906002020160010160009054906101000a900460ff161515146116d5576040517f08c379a00000000000000000000000000000000000000000000000000000000081526004016116cc906121f7565b60405180910390fd5b6000838281518110611710577f4e487b7100000000000000000000000000000000000000000000000000000000600052603260045260246000fd5b60200260200101511015611759576040517f08c379a000000000000000000000000000000000000000000000000000000000815260040161175090612217565b60405180910390fd5b60018060008673ffffffffffffffffffffffffffffffffffffffff1673ffffffffffffffffffffffffffffffffffffffff1681526020019081526020016000208483815181106117d2577f4e487b7100000000000000000000000000000000000000000000000000000000600052603260045260246000fd5b602002602001015181548110611811577f4e487b7100000000000000000000000000000000000000000000000000000000600052603260045260246000fd5b906000526020600020906002020160010160006101000a81548160ff0219169083151502179055508373ffffffffffffffffffffffffffffffffffffffff167fc9500e8741d73a6174663dcbdad0c749714cbea9ee5ea332621f965f1f7d0afd8383815181106118aa577f4e487b7100000000000000000000000000000000000000000000000000000000600052603260045260246000fd5b60200260200101516040516118bf91906121a5565b60405180910390a280806118d29061257d565b91505061144b565b50505050565b8280546118ec9061251a565b90600052602060002090601f01602090048101928261190e5760008555611955565b82601f1061192757805160ff1916838001178555611955565b82800160010185558215611955579182015b82811115611954578251825591602001919060010190611939565b5b5090506119629190611966565b5090565b5b8082111561197f576000816000905550600101611967565b5090565b60006119966119918461231c565b6122f7565b905080838252602082019050828560208602820111156119b557600080fd5b60005b858110156119e557816119cb8882611b1f565b8452602084019350602083019250506001810190506119b8565b5050509392505050565b6000611a026119fd84612348565b6122f7565b90508083825260208201905082856020860282011115611a2157600080fd5b60005b85811015611a6b57813567ffffffffffffffff811115611a4357600080fd5b808601611a508982611bb2565b85526020850194506020840193505050600181019050611a24565b5050509392505050565b6000611a88611a8384612374565b6122f7565b90508083825260208201905082856020860282011115611aa757600080fd5b60005b85811015611ad75781611abd8882611bdc565b845260208401935060208301925050600181019050611aaa565b5050509392505050565b6000611af4611aef846123a0565b6122f7565b905082815260208101848484011115611b0c57600080fd5b611b178482856124d8565b509392505050565b600081359050611b2e816127f8565b92915050565b600082601f830112611b4557600080fd5b8135611b55848260208601611983565b91505092915050565b600082601f830112611b6f57600080fd5b8135611b7f8482602086016119ef565b91505092915050565b600082601f830112611b9957600080fd5b8135611ba9848260208601611a75565b91505092915050565b600082601f830112611bc357600080fd5b8135611bd3848260208601611ae1565b91505092915050565b600081359050611beb8161280f565b92915050565b600060208284031215611c0357600080fd5b6000611c1184828501611b1f565b91505092915050565b60008060408385031215611c2d57600080fd5b6000611c3b85828601611b1f565b925050602083013567ffffffffffffffff811115611c5857600080fd5b611c6485828601611b5e565b9150509250929050565b600080600060608486031215611c8357600080fd5b6000611c9186828701611b1f565b935050602084013567ffffffffffffffff811115611cae57600080fd5b611cba86828701611b88565b925050604084013567ffffffffffffffff811115611cd757600080fd5b611ce386828701611b5e565b9150509250925092565b60008060408385031215611d0057600080fd5b6000611d0e85828601611b1f565b9250506020611d1f85828601611bdc565b9150509250929050565b600060208284031215611d3b57600080fd5b600082013567ffffffffffffffff811115611d5557600080fd5b611d6184828501611b34565b91505092915050565b600060208284031215611d7c57600080fd5b6000611d8a84828501611bdc565b91505092915050565b6000611d9f8383611dbf565b60208301905092915050565b6000611db783836120d7565b905092915050565b611dc881612490565b82525050565b611dd781612490565b82525050565b6000611de882612406565b611df28185612441565b9350611dfd836123d1565b8060005b83811015611e2e578151611e158882611d93565b9750611e2083612427565b925050600181019050611e01565b5085935050505092915050565b6000611e4682612411565b611e508185612452565b935083602082028501611e62856123e1565b8060005b85811015611e9e5784840389528151611e7f8582611dab565b9450611e8a83612434565b925060208a01995050600181019050611e66565b50829750879550505050505092915050565b611eb9816124a2565b82525050565b611ec8816124a2565b82525050565b60008154611edb8161251a565b611ee58186612463565b94506001821660008114611f005760018114611f1157611f44565b60ff19831686528186019350611f44565b611f1a856123f1565b60005b83811015611f3c57815481890152600182019150602081019050611f1d565b838801955050505b50505092915050565b6000611f588261241c565b611f62818561246e565b9350611f728185602086016124e7565b611f7b81612653565b840191505092915050565b6000611f918261241c565b611f9b818561247f565b9350611fab8185602086016124e7565b611fb481612653565b840191505092915050565b6000611fcc601b8361247f565b9150611fd782612664565b602082019050919050565b6000611fef60198361247f565b9150611ffa8261268d565b602082019050919050565b6000612012600b8361247f565b915061201d826126b6565b602082019050919050565b600061203560458361247f565b9150612040826126df565b606082019050919050565b600061205860208361247f565b915061206382612754565b602082019050919050565b600061207b600c8361247f565b91506120868261277d565b602082019050919050565b600061209e60208361247f565b91506120a9826127a6565b602082019050919050565b60006120c160208361247f565b91506120cc826127cf565b602082019050919050565b600060408301600083015184820360008601526120f48282611f4d565b91505060208301516121096020860182611eb0565b508091505092915050565b60006121208284611ece565b915081905092915050565b60006020820190506121406000830184611dce565b92915050565b600060208201905081810360008301526121608184611ddd565b905092915050565b600060208201905081810360008301526121828184611e3b565b905092915050565b600060208201905061219f6000830184611ebf565b92915050565b600060208201905081810360008301526121bf8184611f86565b905092915050565b600060408201905081810360008301526121e18185611f86565b90506121f06020830184611ebf565b9392505050565b6000602082019050818103600083015261221081611fbf565b9050919050565b6000602082019050818103600083015261223081611fe2565b9050919050565b6000602082019050818103600083015261225081612005565b9050919050565b6000602082019050818103600083015261227081612028565b9050919050565b600060208201905081810360008301526122908161204b565b9050919050565b600060208201905081810360008301526122b08161206e565b9050919050565b600060208201905081810360008301526122d081612091565b9050919050565b600060208201905081810360008301526122f0816120b4565b9050919050565b6000612301612312565b905061230d828261254c565b919050565b6000604051905090565b600067ffffffffffffffff82111561233757612336612624565b5b602082029050602081019050919050565b600067ffffffffffffffff82111561236357612362612624565b5b602082029050602081019050919050565b600067ffffffffffffffff82111561238f5761238e612624565b5b602082029050602081019050919050565b600067ffffffffffffffff8211156123bb576123ba612624565b5b6123c482612653565b9050602081019050919050565b6000819050602082019050919050565b6000819050602082019050919050565b60008190508160005260206000209050919050565b600081519050919050565b600081519050919050565b600081519050919050565b6000602082019050919050565b6000602082019050919050565b600082825260208201905092915050565b600082825260208201905092915050565b600081905092915050565b600082825260208201905092915050565b600082825260208201905092915050565b600061249b826124ae565b9050919050565b60008115159050919050565b600073ffffffffffffffffffffffffffffffffffffffff82169050919050565b6000819050919050565b82818337600083830152505050565b60005b838110156125055780820151818401526020810190506124ea565b83811115612514576000848401525b50505050565b6000600282049050600182168061253257607f821691505b60208210811415612546576125456125f5565b5b50919050565b61255582612653565b810181811067ffffffffffffffff8211171561257457612573612624565b5b80604052505050565b6000612588826124ce565b91507fffffffffffffffffffffffffffffffffffffffffffffffffffffffffffffffff8214156125bb576125ba6125c6565b5b600182019050919050565b7f4e487b7100000000000000000000000000000000000000000000000000000000600052601160045260246000fd5b7f4e487b7100000000000000000000000000000000000000000000000000000000600052602260045260246000fd5b7f4e487b7100000000000000000000000000000000000000000000000000000000600052604160045260246000fd5b6000601f19601f8301169050919050565b7f446174616665656420697320616c7265616479206163746976652e0000000000600082015250565b7f496e6465782063616e6e6f74206265206e656761746976652e00000000000000600082015250565b7f4f6e6c79206f776e65722e000000000000000000000000000000000000000000600082015250565b7f4d69736d61746368206265747765656e20756e6465726c79696e67206e616d6560008201527f2061742070726f766964656420696e64657820616e642065787065637465642060208201527f6e616d652e000000000000000000000000000000000000000000000000000000604082015250565b7f4f6e6c79206f776e6572206f722064617461666565642070726f76696465722e600082015250565b7f4e756c6c20616464726573730000000000000000000000000000000000000000600082015250565b7f446174616665656420697320616c72656164792064656163746976617465642e600082015250565b7f41727261797320617265206f6620646966666572656e74206c656e677468732e600082015250565b61280181612490565b811461280c57600080fd5b50565b612818816124ce565b811461282357600080fd5b5056fea2646970667358221220dbb0f77cf5532dbcb82ca9f571f74102e258cabab88ed1e4cf9322d2f87557fa64736f6c63430008040033",
  "linkReferences": {},
  "deployedLinkReferences": {}
}